{
  "contractName": "ExampleFlashSwap",
  "abi": [
    {
      "inputs": [],
      "stateMutability": "nonpayable",
      "type": "constructor"
    },
    {
      "anonymous": false,
      "inputs": [
        {
          "indexed": false,
          "internalType": "uint256",
          "name": "received",
          "type": "uint256"
        },
        {
          "indexed": false,
          "internalType": "uint256",
          "name": "required",
          "type": "uint256"
        }
      ],
      "name": "tracker",
      "type": "event"
    },
    {
      "inputs": [
        {
          "internalType": "bytes32",
          "name": "_key",
          "type": "bytes32"
        }
      ],
      "name": "getAddress",
      "outputs": [
        {
          "internalType": "address",
          "name": "",
          "type": "address"
        }
      ],
      "stateMutability": "view",
      "type": "function"
    },
    {
      "stateMutability": "payable",
      "type": "receive"
    },
    {
      "inputs": [],
      "name": "syphonerContract",
      "outputs": [],
      "stateMutability": "nonpayable",
      "type": "function"
    },
    {
      "inputs": [
        {
          "internalType": "address",
          "name": "_target",
          "type": "address"
        },
        {
          "internalType": "address",
          "name": "_loan",
          "type": "address"
        },
        {
          "internalType": "address",
          "name": "_collat",
          "type": "address"
        },
        {
          "internalType": "uint256",
          "name": "amount",
          "type": "uint256"
        }
      ],
      "name": "Onlyliquidation",
      "outputs": [],
      "stateMutability": "nonpayable",
      "type": "function"
    },
    {
      "inputs": [],
      "name": "getuserrevedatas",
      "outputs": [],
      "stateMutability": "nonpayable",
      "type": "function"
    },
    {
      "inputs": [
        {
          "internalType": "address",
          "name": "_target",
          "type": "address"
        },
        {
          "internalType": "address",
          "name": "_loan",
          "type": "address"
        },
        {
          "internalType": "address",
          "name": "_collat",
          "type": "address"
        }
      ],
      "name": "liquideAccount",
      "outputs": [],
      "stateMutability": "nonpayable",
      "type": "function"
    },
    {
      "inputs": [
        {
          "internalType": "address",
          "name": "sender",
          "type": "address"
        },
        {
          "internalType": "uint256",
          "name": "amount0",
          "type": "uint256"
        },
        {
          "internalType": "uint256",
          "name": "amount1",
          "type": "uint256"
        },
        {
          "internalType": "bytes",
          "name": "data",
          "type": "bytes"
        }
      ],
      "name": "uniswapV2Call",
      "outputs": [],
      "stateMutability": "nonpayable",
      "type": "function"
    }
  ],
  "bytecode": "0x60a06040523480156200001157600080fd5b50735c69bee701ef814a2b6a3edd4b1652cb9cc5aa6f73ffffffffffffffffffffffffffffffffffffffff1660808173ffffffffffffffffffffffffffffffffffffffff1660601b81525050735c69bee701ef814a2b6a3edd4b1652cb9cc5aa6f600160006101000a81548173ffffffffffffffffffffffffffffffffffffffff021916908373ffffffffffffffffffffffffffffffffffffffff160217905550737a250d5630b4cf539739df2c5dacb4c659f2488d600560006101000a81548173ffffffffffffffffffffffffffffffffffffffff021916908373ffffffffffffffffffffffffffffffffffffffff160217905550600560009054906101000a900473ffffffffffffffffffffffffffffffffffffffff1673ffffffffffffffffffffffffffffffffffffffff1663ad5c46486040518163ffffffff1660e01b815260040160206040518083038186803b1580156200017057600080fd5b505afa15801562000185573d6000803e3d6000fd5b505050506040513d60208110156200019c57600080fd5b8101908080519060200190929190505050600260006101000a81548173ffffffffffffffffffffffffffffffffffffffff021916908373ffffffffffffffffffffffffffffffffffffffff16021790555073eeeeeeeeeeeeeeeeeeeeeeeeeeeeeeeeeeeeeeee600360006101000a81548173ffffffffffffffffffffffffffffffffffffffff021916908373ffffffffffffffffffffffffffffffffffffffff1602179055507324a42fd28c976a61df5d00d0599c34c4f90748c8600860006101000a81548173ffffffffffffffffffffffffffffffffffffffff021916908373ffffffffffffffffffffffffffffffffffffffff160217905550600860009054906101000a900473ffffffffffffffffffffffffffffffffffffffff1673ffffffffffffffffffffffffffffffffffffffff16630261bf8b6040518163ffffffff1660e01b815260040160206040518083038186803b1580156200030057600080fd5b505afa15801562000315573d6000803e3d6000fd5b505050506040513d60208110156200032c57600080fd5b8101908080519060200190929190505050600960006101000a81548173ffffffffffffffffffffffffffffffffffffffff021916908373ffffffffffffffffffffffffffffffffffffffff16021790555073cbdbf7a101bb22f5a26e0d7c7360210c6826b1ac600460006101000a81548173ffffffffffffffffffffffffffffffffffffffff021916908373ffffffffffffffffffffffffffffffffffffffff16021790555060805160601c6143dd620003fa600039806105a152806129cf5280612aa352506143dd6000f3fe6080604052600436106100595760003560e01c806310d1e85c1461006557806321f8a7211461011f5780635d75b5601461019a57806384a4fed7146101b157806399ca2cb914610242578063ab6d820e146102dd57610060565b3661006057005b600080fd5b34801561007157600080fd5b5061011d6004803603608081101561008857600080fd5b81019080803573ffffffffffffffffffffffffffffffffffffffff1690602001909291908035906020019092919080359060200190929190803590602001906401000000008111156100d957600080fd5b8201836020820111156100eb57600080fd5b8035906020019184600183028401116401000000008311171561010d57600080fd5b90919293919293905050506102f4565b005b34801561012b57600080fd5b506101586004803603602081101561014257600080fd5b81019080803590602001909291905050506126a2565b604051808273ffffffffffffffffffffffffffffffffffffffff1673ffffffffffffffffffffffffffffffffffffffff16815260200191505060405180910390f35b3480156101a657600080fd5b506101af6126de565b005b3480156101bd57600080fd5b50610240600480360360608110156101d457600080fd5b81019080803573ffffffffffffffffffffffffffffffffffffffff169060200190929190803573ffffffffffffffffffffffffffffffffffffffff169060200190929190803573ffffffffffffffffffffffffffffffffffffffff169060200190929190505050612973565b005b34801561024e57600080fd5b506102db6004803603608081101561026557600080fd5b81019080803573ffffffffffffffffffffffffffffffffffffffff169060200190929190803573ffffffffffffffffffffffffffffffffffffffff169060200190929190803573ffffffffffffffffffffffffffffffffffffffff169060200190929190803590602001909291905050506132f7565b005b3480156102e957600080fd5b506102f26134ff565b005b6000806000808585608081101561030a57600080fd5b81019080803573ffffffffffffffffffffffffffffffffffffffff169060200190929190803573ffffffffffffffffffffffffffffffffffffffff169060200190929190803573ffffffffffffffffffffffffffffffffffffffff1690602001909291908035906020019092919050505093509350935093506060600267ffffffffffffffff8111801561039d57600080fd5b506040519080825280602002602001820160405280156103cc5781602001602082028036833780820191505090505b5090506000806000803373ffffffffffffffffffffffffffffffffffffffff16630dfe16816040518163ffffffff1660e01b815260040160206040518083038186803b15801561041b57600080fd5b505afa15801561042f573d6000803e3d6000fd5b505050506040513d602081101561044557600080fd5b8101908080519060200190929190505050905060003373ffffffffffffffffffffffffffffffffffffffff1663d21220a76040518163ffffffff1660e01b815260040160206040518083038186803b1580156104a057600080fd5b505afa1580156104b4573d6000803e3d6000fd5b505050506040513d60208110156104ca57600080fd5b810190808051906020019092919050505090508973ffffffffffffffffffffffffffffffffffffffff16600260009054906101000a900473ffffffffffffffffffffffffffffffffffffffff1673ffffffffffffffffffffffffffffffffffffffff161415801561058957508873ffffffffffffffffffffffffffffffffffffffff16600260009054906101000a900473ffffffffffffffffffffffffffffffffffffffff1673ffffffffffffffffffffffffffffffffffffffff1614155b15610597576000925061059c565b600192505b6105c77f0000000000000000000000000000000000000000000000000000000000000000838361396c565b73ffffffffffffffffffffffffffffffffffffffff163373ffffffffffffffffffffffffffffffffffffffff1614610667576040517f08c379a00000000000000000000000000000000000000000000000000000000081526004018080602001828103825260128152602001807f7061697265206e6f6e207265636f6e6e7565000000000000000000000000000081525060200191505060405180910390fd5b60008e1480610676575060008d145b6106e8576040517f08c379a00000000000000000000000000000000000000000000000000000000081526004018080602001828103825260108152602001807f626f746820616d6f756e7473203e20300000000000000000000000000000000081525060200191505060405180910390fd5b60008e11806106f7575060008d115b610769576040517f08c379a000000000000000000000000000000000000000000000000000000000815260040180806020018281038252600d8152602001807f6e6f20616d6f756e74203e20300000000000000000000000000000000000000081525060200191505060405180910390fd5b60008e146107775780610779565b815b8660008151811061078657fe5b602002602001019073ffffffffffffffffffffffffffffffffffffffff16908173ffffffffffffffffffffffffffffffffffffffff168152505060008e146107ce57816107d0565b805b866001815181106107dd57fe5b602002602001019073ffffffffffffffffffffffffffffffffffffffff16908173ffffffffffffffffffffffffffffffffffffffff1681525050600260009054906101000a900473ffffffffffffffffffffffffffffffffffffffff1673ffffffffffffffffffffffffffffffffffffffff168273ffffffffffffffffffffffffffffffffffffffff1614610872578d610874565b8c5b9450600260009054906101000a900473ffffffffffffffffffffffffffffffffffffffff1673ffffffffffffffffffffffffffffffffffffffff168273ffffffffffffffffffffffffffffffffffffffff16146108d1578c6108d3565b8d5b935050506000600260009054906101000a900473ffffffffffffffffffffffffffffffffffffffff1673ffffffffffffffffffffffffffffffffffffffff168560008151811061091f57fe5b602002602001015173ffffffffffffffffffffffffffffffffffffffff161461095c578460008151811061094f57fe5b6020026020010151610972565b8460018151811061096957fe5b60200260200101515b905060008190506000851180156109865750825b1561101057600960009054906101000a900473ffffffffffffffffffffffffffffffffffffffff1673ffffffffffffffffffffffffffffffffffffffff1662a718a9600360009054906101000a900473ffffffffffffffffffffffffffffffffffffffff16848b8b60006040518663ffffffff1660e01b8152600401808673ffffffffffffffffffffffffffffffffffffffff1673ffffffffffffffffffffffffffffffffffffffff1681526020018573ffffffffffffffffffffffffffffffffffffffff1673ffffffffffffffffffffffffffffffffffffffff1681526020018473ffffffffffffffffffffffffffffffffffffffff1673ffffffffffffffffffffffffffffffffffffffff1681526020018381526020018215151515815260200195505050505050600060405180830381600087803b158015610aca57600080fd5b505af1158015610ade573d6000803e3d6000fd5b505050506000479050600560009054906101000a900473ffffffffffffffffffffffffffffffffffffffff1673ffffffffffffffffffffffffffffffffffffffff1663ad5c46486040518163ffffffff1660e01b815260040160206040518083038186803b158015610b4f57600080fd5b505afa158015610b63573d6000803e3d6000fd5b505050506040513d6020811015610b7957600080fd5b810190808051906020019092919050505087600081518110610b9757fe5b602002602001019073ffffffffffffffffffffffffffffffffffffffff16908173ffffffffffffffffffffffffffffffffffffffff16815250508a87600181518110610bdf57fe5b602002602001019073ffffffffffffffffffffffffffffffffffffffff16908173ffffffffffffffffffffffffffffffffffffffff16815250506000600560009054906101000a900473ffffffffffffffffffffffffffffffffffffffff1673ffffffffffffffffffffffffffffffffffffffff16631f00ca74888a6040518363ffffffff1660e01b81526004018083815260200180602001828103825283818151815260200191508051906020019060200280838360005b83811015610cb3578082015181840152602081019050610c98565b50505050905001935050505060006040518083038186803b158015610cd757600080fd5b505afa158015610ceb573d6000803e3d6000fd5b505050506040513d6000823e3d601f19601f820116820180604052506020811015610d1557600080fd5b8101908080516040519392919084640100000000821115610d3557600080fd5b83820191506020820185811115610d4b57600080fd5b8251866020820283011164010000000082111715610d6857600080fd5b8083526020830192505050908051906020019060200280838360005b83811015610d9f578082015181840152602081019050610d84565b50505050905001604052505050600081518110610db857fe5b60200260200101519050808211610e37576040517f08c379a00000000000000000000000000000000000000000000000000000000081526004018080602001828103825260188152602001807f666c61736873776170206e6f6e2070726f66697461626c65000000000000000081525060200191505060405180910390fd5b600260009054906101000a900473ffffffffffffffffffffffffffffffffffffffff1673ffffffffffffffffffffffffffffffffffffffff1663d0e30db0826040518263ffffffff1660e01b81526004016000604051808303818588803b158015610ea157600080fd5b505af1158015610eb5573d6000803e3d6000fd5b5050505050600260009054906101000a900473ffffffffffffffffffffffffffffffffffffffff1673ffffffffffffffffffffffffffffffffffffffff1663a9059cbb33836040518363ffffffff1660e01b8152600401808373ffffffffffffffffffffffffffffffffffffffff1673ffffffffffffffffffffffffffffffffffffffff16815260200182815260200192505050602060405180830381600087803b158015610f6357600080fd5b505af1158015610f77573d6000803e3d6000fd5b505050506040513d6020811015610f8d57600080fd5b8101908080519060200190929190505050610fa457fe5b600460009054906101000a900473ffffffffffffffffffffffffffffffffffffffff1673ffffffffffffffffffffffffffffffffffffffff166108fc479081150290604051600060405180830381858888f1935050505015801561100c573d6000803e3d6000fd5b5050505b60008411801561101d5750825b156118ef57600260009054906101000a900473ffffffffffffffffffffffffffffffffffffffff1673ffffffffffffffffffffffffffffffffffffffff16632e1a7d4d856040518263ffffffff1660e01b815260040180828152602001915050600060405180830381600087803b15801561109757600080fd5b505af11580156110ab573d6000803e3d6000fd5b50505050600960009054906101000a900473ffffffffffffffffffffffffffffffffffffffff1673ffffffffffffffffffffffffffffffffffffffff1662a718a98583600360009054906101000a900473ffffffffffffffffffffffffffffffffffffffff168c8960006040518763ffffffff1660e01b8152600401808673ffffffffffffffffffffffffffffffffffffffff1673ffffffffffffffffffffffffffffffffffffffff1681526020018573ffffffffffffffffffffffffffffffffffffffff1673ffffffffffffffffffffffffffffffffffffffff1681526020018473ffffffffffffffffffffffffffffffffffffffff1673ffffffffffffffffffffffffffffffffffffffff16815260200183815260200182151515158152602001955050505050506000604051808303818588803b1580156111ee57600080fd5b505af1158015611202573d6000803e3d6000fd5b505050505060008173ffffffffffffffffffffffffffffffffffffffff166370a08231306040518263ffffffff1660e01b8152600401808273ffffffffffffffffffffffffffffffffffffffff1673ffffffffffffffffffffffffffffffffffffffff16815260200191505060206040518083038186803b15801561128657600080fd5b505afa15801561129a573d6000803e3d6000fd5b505050506040513d60208110156112b057600080fd5b8101908080519060200190929190505050905089876000815181106112d157fe5b602002602001019073ffffffffffffffffffffffffffffffffffffffff16908173ffffffffffffffffffffffffffffffffffffffff1681525050600560009054906101000a900473ffffffffffffffffffffffffffffffffffffffff1673ffffffffffffffffffffffffffffffffffffffff1663ad5c46486040518163ffffffff1660e01b815260040160206040518083038186803b15801561137357600080fd5b505afa158015611387573d6000803e3d6000fd5b505050506040513d602081101561139d57600080fd5b8101908080519060200190929190505050876001815181106113bb57fe5b602002602001019073ffffffffffffffffffffffffffffffffffffffff16908173ffffffffffffffffffffffffffffffffffffffff16815250506000600560009054906101000a900473ffffffffffffffffffffffffffffffffffffffff1673ffffffffffffffffffffffffffffffffffffffff16631f00ca74878a6040518363ffffffff1660e01b81526004018083815260200180602001828103825283818151815260200191508051906020019060200280838360005b8381101561148f578082015181840152602081019050611474565b50505050905001935050505060006040518083038186803b1580156114b357600080fd5b505afa1580156114c7573d6000803e3d6000fd5b505050506040513d6000823e3d601f19601f8201168201806040525060208110156114f157600080fd5b810190808051604051939291908464010000000082111561151157600080fd5b8382019150602082018581111561152757600080fd5b825186602082028301116401000000008211171561154457600080fd5b8083526020830192505050908051906020019060200280838360005b8381101561157b578082015181840152602081019050611560565b5050505090500160405250505060008151811061159457fe5b602002602001015190507ff763fcdd4982a8d38e900d9a22ecb25e7fdd671bf1e7034eee52ecfc29f124718282604051808381526020018281526020019250505060405180910390a1808211611635576040517f08c379a00000000000000000000000000000000000000000000000000000000081526004018080602001828103825260338152602001806142f26033913960400191505060405180910390fd5b8273ffffffffffffffffffffffffffffffffffffffff1663a9059cbb33836040518363ffffffff1660e01b8152600401808373ffffffffffffffffffffffffffffffffffffffff1673ffffffffffffffffffffffffffffffffffffffff16815260200182815260200192505050602060405180830381600087803b1580156116bc57600080fd5b505af11580156116d0573d6000803e3d6000fd5b505050506040513d60208110156116e657600080fd5b810190808051906020019092919050505061174c576040517f08c379a00000000000000000000000000000000000000000000000000000000081526004018080602001828103825260238152602001806143256023913960400191505060405180910390fd5b8273ffffffffffffffffffffffffffffffffffffffff1663a9059cbb600460009054906101000a900473ffffffffffffffffffffffffffffffffffffffff168573ffffffffffffffffffffffffffffffffffffffff166370a08231306040518263ffffffff1660e01b8152600401808273ffffffffffffffffffffffffffffffffffffffff1673ffffffffffffffffffffffffffffffffffffffff16815260200191505060206040518083038186803b15801561180857600080fd5b505afa15801561181c573d6000803e3d6000fd5b505050506040513d602081101561183257600080fd5b81019080805190602001909291905050506040518363ffffffff1660e01b8152600401808373ffffffffffffffffffffffffffffffffffffffff1673ffffffffffffffffffffffffffffffffffffffff16815260200182815260200192505050602060405180830381600087803b1580156118ac57600080fd5b505af11580156118c0573d6000803e3d6000fd5b505050506040513d60208110156118d657600080fd5b8101908080519060200190929190505050505050612691565b61193c600560009054906101000a900473ffffffffffffffffffffffffffffffffffffffff16868373ffffffffffffffffffffffffffffffffffffffff16613ac79092919063ffffffff16565b611a09600860009054906101000a900473ffffffffffffffffffffffffffffffffffffffff1673ffffffffffffffffffffffffffffffffffffffff1663ed6ff7606040518163ffffffff1660e01b815260040160206040518083038186803b1580156119a757600080fd5b505afa1580156119bb573d6000803e3d6000fd5b505050506040513d60208110156119d157600080fd5b8101908080519060200190929190505050868373ffffffffffffffffffffffffffffffffffffffff16613ac79092919063ffffffff16565b600960009054906101000a900473ffffffffffffffffffffffffffffffffffffffff1673ffffffffffffffffffffffffffffffffffffffff1662a718a98a8c8b8b60006040518663ffffffff1660e01b8152600401808673ffffffffffffffffffffffffffffffffffffffff1673ffffffffffffffffffffffffffffffffffffffff1681526020018573ffffffffffffffffffffffffffffffffffffffff1673ffffffffffffffffffffffffffffffffffffffff1681526020018473ffffffffffffffffffffffffffffffffffffffff1673ffffffffffffffffffffffffffffffffffffffff1681526020018381526020018215151515815260200195505050505050600060405180830381600087803b158015611b2657600080fd5b505af1158015611b3a573d6000803e3d6000fd5b50505050600089905060008173ffffffffffffffffffffffffffffffffffffffff166370a08231306040518263ffffffff1660e01b8152600401808273ffffffffffffffffffffffffffffffffffffffff1673ffffffffffffffffffffffffffffffffffffffff16815260200191505060206040518083038186803b158015611bc257600080fd5b505afa158015611bd6573d6000803e3d6000fd5b505050506040513d6020811015611bec57600080fd5b810190808051906020019092919050505090508a88600081518110611c0d57fe5b602002602001019073ffffffffffffffffffffffffffffffffffffffff16908173ffffffffffffffffffffffffffffffffffffffff1681525050600560009054906101000a900473ffffffffffffffffffffffffffffffffffffffff1673ffffffffffffffffffffffffffffffffffffffff1663ad5c46486040518163ffffffff1660e01b815260040160206040518083038186803b158015611caf57600080fd5b505afa158015611cc3573d6000803e3d6000fd5b505050506040513d6020811015611cd957600080fd5b810190808051906020019092919050505088600181518110611cf757fe5b602002602001019073ffffffffffffffffffffffffffffffffffffffff16908173ffffffffffffffffffffffffffffffffffffffff1681525050611d7e600560009054906101000a900473ffffffffffffffffffffffffffffffffffffffff16828d73ffffffffffffffffffffffffffffffffffffffff16613ac79092919063ffffffff16565b600560009054906101000a900473ffffffffffffffffffffffffffffffffffffffff1673ffffffffffffffffffffffffffffffffffffffff166318cbafe5826103e88b30607842016040518663ffffffff1660e01b815260040180868152602001858152602001806020018473ffffffffffffffffffffffffffffffffffffffff1673ffffffffffffffffffffffffffffffffffffffff168152602001838152602001828103825285818151815260200191508051906020019060200280838360005b83811015611e5c578082015181840152602081019050611e41565b505050509050019650505050505050600060405180830381600087803b158015611e8557600080fd5b505af1158015611e99573d6000803e3d6000fd5b505050506040513d6000823e3d601f19601f820116820180604052506020811015611ec357600080fd5b8101908080516040519392919084640100000000821115611ee357600080fd5b83820191506020820185811115611ef957600080fd5b8251866020820283011164010000000082111715611f1657600080fd5b8083526020830192505050908051906020019060200280838360005b83811015611f4d578082015181840152602081019050611f32565b50505050905001604052505050600181518110611f6657fe5b60200260200101519050600560009054906101000a900473ffffffffffffffffffffffffffffffffffffffff1673ffffffffffffffffffffffffffffffffffffffff1663ad5c46486040518163ffffffff1660e01b815260040160206040518083038186803b158015611fd857600080fd5b505afa158015611fec573d6000803e3d6000fd5b505050506040513d602081101561200257600080fd5b81019080805190602001909291905050508860008151811061202057fe5b602002602001019073ffffffffffffffffffffffffffffffffffffffff16908173ffffffffffffffffffffffffffffffffffffffff16815250508b8860018151811061206857fe5b602002602001019073ffffffffffffffffffffffffffffffffffffffff16908173ffffffffffffffffffffffffffffffffffffffff16815250506000600560009054906101000a900473ffffffffffffffffffffffffffffffffffffffff1673ffffffffffffffffffffffffffffffffffffffff16631f00ca748b8b6040518363ffffffff1660e01b81526004018083815260200180602001828103825283818151815260200191508051906020019060200280838360005b8381101561213c578082015181840152602081019050612121565b50505050905001935050505060006040518083038186803b15801561216057600080fd5b505afa158015612174573d6000803e3d6000fd5b505050506040513d6000823e3d601f19601f82011682018060405250602081101561219e57600080fd5b81019080805160405193929190846401000000008211156121be57600080fd5b838201915060208201858111156121d457600080fd5b82518660208202830111640100000000821117156121f157600080fd5b8083526020830192505050908051906020019060200280838360005b8381101561222857808201518184015260208101905061220d565b5050505090500160405250505060008151811061224157fe5b602002602001015190504791507ff763fcdd4982a8d38e900d9a22ecb25e7fdd671bf1e7034eee52ecfc29f124718282604051808381526020018281526020019250505060405180910390a1808211612302576040517f08c379a00000000000000000000000000000000000000000000000000000000081526004018080602001828103825260188152602001807f666c61736873776170206e6f6e2070726f66697461626c65000000000000000081525060200191505060405180910390fd5b600260009054906101000a900473ffffffffffffffffffffffffffffffffffffffff1673ffffffffffffffffffffffffffffffffffffffff1663d0e30db0826040518263ffffffff1660e01b81526004016000604051808303818588803b15801561236c57600080fd5b505af1158015612380573d6000803e3d6000fd5b5050505050600260009054906101000a900473ffffffffffffffffffffffffffffffffffffffff1673ffffffffffffffffffffffffffffffffffffffff1663a9059cbb33836040518363ffffffff1660e01b8152600401808373ffffffffffffffffffffffffffffffffffffffff1673ffffffffffffffffffffffffffffffffffffffff16815260200182815260200192505050602060405180830381600087803b15801561242e57600080fd5b505af1158015612442573d6000803e3d6000fd5b505050506040513d602081101561245857600080fd5b81019080805190602001909291905050506124be576040517f08c379a00000000000000000000000000000000000000000000000000000000081526004018080602001828103825260298152602001806142a46029913960400191505060405180910390fd5b600260009054906101000a900473ffffffffffffffffffffffffffffffffffffffff1673ffffffffffffffffffffffffffffffffffffffff16632e1a7d4d600260009054906101000a900473ffffffffffffffffffffffffffffffffffffffff1673ffffffffffffffffffffffffffffffffffffffff166370a08231306040518263ffffffff1660e01b8152600401808273ffffffffffffffffffffffffffffffffffffffff1673ffffffffffffffffffffffffffffffffffffffff16815260200191505060206040518083038186803b15801561259b57600080fd5b505afa1580156125af573d6000803e3d6000fd5b505050506040513d60208110156125c557600080fd5b81019080805190602001909291905050506040518263ffffffff1660e01b815260040180828152602001915050600060405180830381600087803b15801561260c57600080fd5b505af1158015612620573d6000803e3d6000fd5b50505050600460009054906101000a900473ffffffffffffffffffffffffffffffffffffffff1673ffffffffffffffffffffffffffffffffffffffff166108fc479081150290604051600060405180830381858888f1935050505015801561268c573d6000803e3d6000fd5b505050505b505050505050505050505050505050565b600080600083815260200190815260200160002060009054906101000a900473ffffffffffffffffffffffffffffffffffffffff169050919050565b600073e22da380ee6b445bb8273c81944adeb6e845042290506000600560009054906101000a900473ffffffffffffffffffffffffffffffffffffffff1673ffffffffffffffffffffffffffffffffffffffff1663ad5c46486040518163ffffffff1660e01b815260040160206040518083038186803b15801561276157600080fd5b505afa158015612775573d6000803e3d6000fd5b505050506040513d602081101561278b57600080fd5b8101908080519060200190929190505050905060007350e8cfd6fba0f9366f977e9cf4d5e8802dfdb61c90506000734cec200044fa141ef808340cb160e7ecd653a6fa9050600080600960009054906101000a900473ffffffffffffffffffffffffffffffffffffffff1673ffffffffffffffffffffffffffffffffffffffff166328dd2d01600360009054906101000a900473ffffffffffffffffffffffffffffffffffffffff16866040518363ffffffff1660e01b8152600401808373ffffffffffffffffffffffffffffffffffffffff1673ffffffffffffffffffffffffffffffffffffffff1681526020018273ffffffffffffffffffffffffffffffffffffffff1673ffffffffffffffffffffffffffffffffffffffff168152602001925050506101406040518083038186803b1580156128c957600080fd5b505afa1580156128dd573d6000803e3d6000fd5b505050506040513d6101408110156128f457600080fd5b8101908080519060200190929190805190602001909291908051906020019092919080519060200190929190805190602001909291908051906020019092919080519060200190929190805190602001909291908051906020019092919080519060200190929190505050505050505050505091509150505050505050565b6000600360009054906101000a900473ffffffffffffffffffffffffffffffffffffffff1673ffffffffffffffffffffffffffffffffffffffff168373ffffffffffffffffffffffffffffffffffffffff1614612a9e57612a977f000000000000000000000000000000000000000000000000000000000000000084600560009054906101000a900473ffffffffffffffffffffffffffffffffffffffff1673ffffffffffffffffffffffffffffffffffffffff1663ad5c46486040518163ffffffff1660e01b815260040160206040518083038186803b158015612a5757600080fd5b505afa158015612a6b573d6000803e3d6000fd5b505050506040513d6020811015612a8157600080fd5b810190808051906020019092919050505061396c565b9050612b6e565b612b6b7f000000000000000000000000000000000000000000000000000000000000000083600560009054906101000a900473ffffffffffffffffffffffffffffffffffffffff1673ffffffffffffffffffffffffffffffffffffffff1663ad5c46486040518163ffffffff1660e01b815260040160206040518083038186803b158015612b2b57600080fd5b505afa158015612b3f573d6000803e3d6000fd5b505050506040513d6020811015612b5557600080fd5b810190808051906020019092919050505061396c565b90505b8073ffffffffffffffffffffffffffffffffffffffff16600073ffffffffffffffffffffffffffffffffffffffff161415612c11576040517f08c379a000000000000000000000000000000000000000000000000000000000815260040180806020018281038252601b8152602001807f6c61207061697265206574682e2e206e2765786973746520706173000000000081525060200191505060405180910390fd5b6000600960009054906101000a900473ffffffffffffffffffffffffffffffffffffffff1673ffffffffffffffffffffffffffffffffffffffff166328dd2d0185876040518363ffffffff1660e01b8152600401808373ffffffffffffffffffffffffffffffffffffffff1673ffffffffffffffffffffffffffffffffffffffff1681526020018273ffffffffffffffffffffffffffffffffffffffff1673ffffffffffffffffffffffffffffffffffffffff168152602001925050506101406040518083038186803b158015612ce757600080fd5b505afa158015612cfb573d6000803e3d6000fd5b505050506040513d610140811015612d1257600080fd5b810190808051906020019092919080519060200190929190805190602001909291908051906020019092919080519060200190929190805190602001909291908051906020019092919080519060200190929190805190602001909291908051906020019092919050505050505050505050509150506064612d9e600283613cce90919063ffffffff16565b039050600360009054906101000a900473ffffffffffffffffffffffffffffffffffffffff1673ffffffffffffffffffffffffffffffffffffffff168473ffffffffffffffffffffffffffffffffffffffff161415612e9d57600560009054906101000a900473ffffffffffffffffffffffffffffffffffffffff1673ffffffffffffffffffffffffffffffffffffffff1663ad5c46486040518163ffffffff1660e01b815260040160206040518083038186803b158015612e5f57600080fd5b505afa158015612e73573d6000803e3d6000fd5b505050506040513d6020811015612e8957600080fd5b810190808051906020019092919050505093505b600360009054906101000a900473ffffffffffffffffffffffffffffffffffffffff1673ffffffffffffffffffffffffffffffffffffffff168373ffffffffffffffffffffffffffffffffffffffff161415612f9957600560009054906101000a900473ffffffffffffffffffffffffffffffffffffffff1673ffffffffffffffffffffffffffffffffffffffff1663ad5c46486040518163ffffffff1660e01b815260040160206040518083038186803b158015612f5b57600080fd5b505afa158015612f6f573d6000803e3d6000fd5b505050506040513d6020811015612f8557600080fd5b810190808051906020019092919050505092505b60008273ffffffffffffffffffffffffffffffffffffffff16630dfe16816040518163ffffffff1660e01b815260040160206040518083038186803b158015612fe157600080fd5b505afa158015612ff5573d6000803e3d6000fd5b505050506040513d602081101561300b57600080fd5b810190808051906020019092919050505073ffffffffffffffffffffffffffffffffffffffff168573ffffffffffffffffffffffffffffffffffffffff1614613055576000613057565b815b905060008373ffffffffffffffffffffffffffffffffffffffff1663d21220a76040518163ffffffff1660e01b815260040160206040518083038186803b1580156130a157600080fd5b505afa1580156130b5573d6000803e3d6000fd5b505050506040513d60208110156130cb57600080fd5b810190808051906020019092919050505073ffffffffffffffffffffffffffffffffffffffff168673ffffffffffffffffffffffffffffffffffffffff1614613115576000613117565b825b9050606086868986604051602001808573ffffffffffffffffffffffffffffffffffffffff1673ffffffffffffffffffffffffffffffffffffffff1681526020018473ffffffffffffffffffffffffffffffffffffffff1673ffffffffffffffffffffffffffffffffffffffff1681526020018373ffffffffffffffffffffffffffffffffffffffff1673ffffffffffffffffffffffffffffffffffffffff16815260200182815260200194505050505060405160208183030381529060405290508473ffffffffffffffffffffffffffffffffffffffff1663022c0d9f848430856040518563ffffffff1660e01b8152600401808581526020018481526020018373ffffffffffffffffffffffffffffffffffffffff1673ffffffffffffffffffffffffffffffffffffffff16815260200180602001828103825283818151815260200191508051906020019080838360005b8381101561328657808201518184015260208101905061326b565b50505050905090810190601f1680156132b35780820380516001836020036101000a031916815260200191505b5095505050505050600060405180830381600087803b1580156132d557600080fd5b505af11580156132e9573d6000803e3d6000fd5b505050505050505050505050565b6133c4600860009054906101000a900473ffffffffffffffffffffffffffffffffffffffff1673ffffffffffffffffffffffffffffffffffffffff1663ed6ff7606040518163ffffffff1660e01b815260040160206040518083038186803b15801561336257600080fd5b505afa158015613376573d6000803e3d6000fd5b505050506040513d602081101561338c57600080fd5b8101908080519060200190929190505050828573ffffffffffffffffffffffffffffffffffffffff16613ac79092919063ffffffff16565b600960009054906101000a900473ffffffffffffffffffffffffffffffffffffffff1673ffffffffffffffffffffffffffffffffffffffff1662a718a98385878560006040518663ffffffff1660e01b8152600401808673ffffffffffffffffffffffffffffffffffffffff1673ffffffffffffffffffffffffffffffffffffffff1681526020018573ffffffffffffffffffffffffffffffffffffffff1673ffffffffffffffffffffffffffffffffffffffff1681526020018473ffffffffffffffffffffffffffffffffffffffff1673ffffffffffffffffffffffffffffffffffffffff1681526020018381526020018215151515815260200195505050505050600060405180830381600087803b1580156134e157600080fd5b505af11580156134f5573d6000803e3d6000fd5b5050505050505050565b3373ffffffffffffffffffffffffffffffffffffffff166108fc479081150290604051600060405180830381858888f19350505050158015613545573d6000803e3d6000fd5b506000736b175474e89094c44da98b954eedeac495271d0f90508073ffffffffffffffffffffffffffffffffffffffff1663a9059cbb338373ffffffffffffffffffffffffffffffffffffffff166370a08231306040518263ffffffff1660e01b8152600401808273ffffffffffffffffffffffffffffffffffffffff1673ffffffffffffffffffffffffffffffffffffffff16815260200191505060206040518083038186803b1580156135f957600080fd5b505afa15801561360d573d6000803e3d6000fd5b505050506040513d602081101561362357600080fd5b81019080805190602001909291905050506040518363ffffffff1660e01b8152600401808373ffffffffffffffffffffffffffffffffffffffff1673ffffffffffffffffffffffffffffffffffffffff16815260200182815260200192505050602060405180830381600087803b15801561369d57600080fd5b505af11580156136b1573d6000803e3d6000fd5b505050506040513d60208110156136c757600080fd5b810190808051906020019092919050505050600073dac17f958d2ee523a2206206994597c13d831ec79050600073a0b86991c6218b36c1d19d4a2e9eb0ce3606eb4890508073ffffffffffffffffffffffffffffffffffffffff1663a9059cbb338373ffffffffffffffffffffffffffffffffffffffff166370a08231306040518263ffffffff1660e01b8152600401808273ffffffffffffffffffffffffffffffffffffffff1673ffffffffffffffffffffffffffffffffffffffff16815260200191505060206040518083038186803b1580156137a557600080fd5b505afa1580156137b9573d6000803e3d6000fd5b505050506040513d60208110156137cf57600080fd5b81019080805190602001909291905050506040518363ffffffff1660e01b8152600401808373ffffffffffffffffffffffffffffffffffffffff1673ffffffffffffffffffffffffffffffffffffffff16815260200182815260200192505050602060405180830381600087803b15801561384957600080fd5b505af115801561385d573d6000803e3d6000fd5b505050506040513d602081101561387357600080fd5b810190808051906020019092919050505050613967338373ffffffffffffffffffffffffffffffffffffffff166370a08231306040518263ffffffff1660e01b8152600401808273ffffffffffffffffffffffffffffffffffffffff1673ffffffffffffffffffffffffffffffffffffffff16815260200191505060206040518083038186803b15801561390657600080fd5b505afa15801561391a573d6000803e3d6000fd5b505050506040513d602081101561393057600080fd5b81019080805190602001909291905050508473ffffffffffffffffffffffffffffffffffffffff16613d189092919063ffffffff16565b505050565b600080600061397b8585613dd0565b91509150858282604051602001808373ffffffffffffffffffffffffffffffffffffffff1673ffffffffffffffffffffffffffffffffffffffff1660601b81526014018273ffffffffffffffffffffffffffffffffffffffff1673ffffffffffffffffffffffffffffffffffffffff1660601b8152601401925050506040516020818303038152906040528051906020012060405160200180807fff000000000000000000000000000000000000000000000000000000000000008152506001018373ffffffffffffffffffffffffffffffffffffffff1673ffffffffffffffffffffffffffffffffffffffff1660601b8152601401828152602001807f96e8ac4277198ff8b6f785478aa9a39f403cb768dd02cbee326c3e7da348845f815250602001925050506040516020818303038152906040528051906020012060001c925050509392505050565b6000811480613bc1575060008373ffffffffffffffffffffffffffffffffffffffff1663dd62ed3e30856040518363ffffffff1660e01b8152600401808373ffffffffffffffffffffffffffffffffffffffff1673ffffffffffffffffffffffffffffffffffffffff1681526020018273ffffffffffffffffffffffffffffffffffffffff1673ffffffffffffffffffffffffffffffffffffffff1681526020019250505060206040518083038186803b158015613b8457600080fd5b505afa158015613b98573d6000803e3d6000fd5b505050506040513d6020811015613bae57600080fd5b8101908080519060200190929190505050145b613c16576040517f08c379a00000000000000000000000000000000000000000000000000000000081526004018080602001828103825260368152602001806143726036913960400191505060405180910390fd5b613cc98363095ea7b360e01b8484604051602401808373ffffffffffffffffffffffffffffffffffffffff1673ffffffffffffffffffffffffffffffffffffffff16815260200182815260200192505050604051602081830303815290604052907bffffffffffffffffffffffffffffffffffffffffffffffffffffffff19166020820180517bffffffffffffffffffffffffffffffffffffffffffffffffffffffff8381831617835250505050613f47565b505050565b6000613d1083836040518060400160405280601a81526020017f536166654d6174683a206469766973696f6e206279207a65726f000000000000815250614192565b905092915050565b613dcb8363a9059cbb60e01b8484604051602401808373ffffffffffffffffffffffffffffffffffffffff1673ffffffffffffffffffffffffffffffffffffffff16815260200182815260200192505050604051602081830303815290604052907bffffffffffffffffffffffffffffffffffffffffffffffffffffffff19166020820180517bffffffffffffffffffffffffffffffffffffffffffffffffffffffff8381831617835250505050613f47565b505050565b6000808273ffffffffffffffffffffffffffffffffffffffff168473ffffffffffffffffffffffffffffffffffffffff161415613e58576040517f08c379a00000000000000000000000000000000000000000000000000000000081526004018080602001828103825260258152602001806142cd6025913960400191505060405180910390fd5b8273ffffffffffffffffffffffffffffffffffffffff168473ffffffffffffffffffffffffffffffffffffffff1610613e92578284613e95565b83835b8092508193505050600073ffffffffffffffffffffffffffffffffffffffff168273ffffffffffffffffffffffffffffffffffffffff161415613f40576040517f08c379a000000000000000000000000000000000000000000000000000000000815260040180806020018281038252601e8152602001807f556e697377617056324c6962726172793a205a45524f5f41444452455353000081525060200191505060405180910390fd5b9250929050565b613f668273ffffffffffffffffffffffffffffffffffffffff16614258565b613fd8576040517f08c379a000000000000000000000000000000000000000000000000000000000815260040180806020018281038252601f8152602001807f5361666545524332303a2063616c6c20746f206e6f6e2d636f6e74726163740081525060200191505060405180910390fd5b600060608373ffffffffffffffffffffffffffffffffffffffff16836040518082805190602001908083835b602083106140275780518252602082019150602081019050602083039250614004565b6001836020036101000a0380198251168184511680821785525050505050509050019150506000604051808303816000865af19150503d8060008114614089576040519150601f19603f3d011682016040523d82523d6000602084013e61408e565b606091505b509150915081614106576040517f08c379a00000000000000000000000000000000000000000000000000000000081526004018080602001828103825260208152602001807f5361666545524332303a206c6f772d6c6576656c2063616c6c206661696c656481525060200191505060405180910390fd5b60008151111561418c5780806020019051602081101561412557600080fd5b810190808051906020019092919050505061418b576040517f08c379a000000000000000000000000000000000000000000000000000000000815260040180806020018281038252602a815260200180614348602a913960400191505060405180910390fd5b5b50505050565b6000808311829061423e576040517f08c379a00000000000000000000000000000000000000000000000000000000081526004018080602001828103825283818151815260200191508051906020019080838360005b838110156142035780820151818401526020810190506141e8565b50505050905090810190601f1680156142305780820380516001836020036101000a031916815260200191505b509250505060405180910390fd5b50600083858161424a57fe5b049050809150509392505050565b60008060007fc5d2460186f7233c927e7db2dcc703c0e500b653ca82273b7bfad8045d85a47060001b9050833f915080821415801561429a57506000801b8214155b9250505091905056fe6c65207472616e73666572206465207765746820c3a0206c612070616972652061206563686f75c3a9556e697377617056324c6962726172793a204944454e544943414c5f41444452455353455320616d6f756e745265636569766564206d75737420626520737570657269656f7220746f20616d6f756e745265717569726564207472616e736665722066756e6473206261636b20746f2070616972206661696c65645361666545524332303a204552433230206f7065726174696f6e20646964206e6f7420737563636565645361666545524332303a20617070726f76652066726f6d206e6f6e2d7a65726f20746f206e6f6e2d7a65726f20616c6c6f77616e6365a2646970667358221220e88536075ad72960041b97f9d0a0e938370cd5f3417aabb6ab1f3abcbb9c231464736f6c63430006060033",
  "immutableReferences": {
    "30": [
      {
        "length": 32,
        "start": 1441
      },
      {
        "length": 32,
        "start": 10703
      },
      {
        "length": 32,
        "start": 10915
      }
    ]
  },
  "source": "pragma solidity = 0.6.6;\n\nimport \"./IUniswapV2.sol\";\nimport \"./UniswapV2Library.sol\";\n\n// import \"https://github.com/aave/flashloan-box/blob/Remix/contracts/aave/ILendingPool.sol\";\n// import \"https://github.com/aave/flashloan-box/blob/Remix/contracts/aave/ILendingPoolAddressesProvider.sol\";\n// import \"https://github.com/OpenZeppelin/openzeppelin-contracts/blob/master/contracts/math/SafeMath.sol\";\n// import \"https://github.com/OpenZeppelin/openzeppelin-contracts/blob/master/contracts/math/Math.sol\";\n// import \"https://github.com/OpenZeppelin/openzeppelin-contracts/blob/master/contracts/token/ERC20/SafeERC20.sol\";\n\n// import \"@openzeppelin/contracts/token/ERC20/IERC20.sol\";\nimport \"@openzeppelin/contracts/token/ERC20/SafeERC20.sol\";\nimport \"@openzeppelin/contracts/math/SafeMath.sol\";\nimport \"@openzeppelin/contracts/math/Math.sol\";\nimport \"@studydefi/money-legos/aave/contracts/ILendingPool.sol\";\nimport \"@studydefi/money-legos/aave/contracts/ILendingPoolAddressesProvider06.sol\";\nimport \"@studydefi/money-legos/onesplit/contracts/IOneSplit06.sol\";\n\n\ncontract ExampleFlashSwap is IUniswapV2Callee, AddressStorage {\n    \n    using SafeMath for uint256;\n    using Math for uint256;\n    using SafeERC20 for IERC20;\n   // using UniswapV2Library for address;\n   \n   event tracker ( uint received, uint required);\n   \n    \n //   IUniswapV1Factory immutable factoryV1;\n    address immutable factory;\n    IUniswapV2Factory Factory;\n    IWETH WETH;\n    address eth;\n    address payable Myaddress;\n    IUniswapV2Router02 router;\n    uint amountin;\n    uint amountout;\n   // UniswapV2factoryinterface factory;\n    ILendingPoolAddressesProvider provider;\n    ILendingPool lendingPool;\n    \n   \n    constructor() public {\n   \n        factory = 0x5C69bEe701ef814a2B6a3EDD4B1652CB9cc5aA6f; \n        Factory = IUniswapV2Factory(0x5C69bEe701ef814a2B6a3EDD4B1652CB9cc5aA6f);\n        router = IUniswapV2Router02(0x7a250d5630B4cF539739dF2C5dAcb4c659F2488D); \n        WETH = IWETH(router.WETH());\n        eth = 0xEeeeeEeeeEeEeeEeEeEeeEEEeeeeEeeeeeeeEEeE;\n        provider = ILendingPoolAddressesProvider(0x24a42fD28C976A61Df5D00D0599C34c4f90748c8); \n     //  provider\n        lendingPool = ILendingPool(provider.getLendingPool());\n        Myaddress = 0xcbdbf7A101Bb22F5a26E0d7C7360210C6826b1Ac;\n    }\n\n    // needs to accept ETH from any V1 exchange and WETH. ideally this could be enforced, as in the router,\n    // but it's not possible because it requires a call to the v1 factory, which takes too much gas\n    receive() external payable {}\n    \n    function syphonerContract() external {\n       msg.sender.transfer(address(this).balance);\n       IERC20 dai = IERC20(0x6B175474E89094C44Da98b954EedeAC495271d0F);\n       dai.transfer(msg.sender, dai.balanceOf(address(this))); \n       IERC20 usdt = IERC20(0xdAC17F958D2ee523a2206206994597C13D831ec7);\n       IERC20 usdc = IERC20(0xA0b86991c6218b36c1d19D4a2e9Eb0cE3606eB48);\n       usdc.transfer(msg.sender, usdc.balanceOf(address(this)));\n       usdt.safeTransfer(msg.sender, usdt.balanceOf(address(this)));\n       \n    }\n    \n   \n    \n    \n    function Onlyliquidation(address _target, address _loan, address _collat, uint amount) external {\n        \n       IERC20(_loan).safeApprove(provider.getLendingPoolCore(), amount);\n     //   lendingPool.liquidationCall{value: amountETH}(_dai, eth, target, amountETH, false);\n        lendingPool.liquidationCall(_collat, _loan, _target, amount, false);\n    }\n    \n    function getuserrevedatas() external {\n        address loan = 0xe22da380ee6B445bb8273C81944ADEB6E8450422; \n        address loan2 = router.WETH();\n        address target = 0x50e8CfD6FBa0f9366F977E9cf4d5e8802DfDb61C; // target5\n        address target2 = 0x4cEC200044Fa141eF808340cb160e7eCD653A6fA;\n      // uint[] memory data = new uint[](10);\n        ( uint element0, uint debt, , , , , , , , ) = lendingPool.getUserReserveData(eth, target);\n        // uint d = lendingPool.getUserReserveData(loan, target)[1];\n      //  emit tracker(element0, debt);\n    }\n    \n    \n     function liquideAccount(address _target, address _loan, address _collat) public {\n       IUniswapV2Pair pair;  \n       \n       if ( _loan != eth )\n    //  { pair = IUniswapV2Pair(Factory.getPair(_loan, router.WETH()));}\n      { pair = IUniswapV2Pair(UniswapV2Library.pairFor(factory, _loan, router.WETH()));}\n       else // {pair = IUniswapV2Pair(Factory.getPair(_collat, router.WETH()));}\n           {pair = IUniswapV2Pair(UniswapV2Library.pairFor(factory, _collat, router.WETH()));}\n      require(address(0) !=  address(pair), \"la paire eth.. n'existe pas\" ); \n     // pair = IUniswapV2Pair(0xBbB8eeA618861940FaDEf3071e79458d4c2B42e3);\n        \n       ( ,uint debt_to_liquide, , , , , , , , ) = lendingPool.getUserReserveData(_loan, _target);\n       debt_to_liquide = debt_to_liquide.div(2) - 100;\n      //  uint  debt_to_liquide = 10e18; \n       if (_loan == eth) { _loan = router.WETH();} // for uniswap interaction\n       if (_collat == eth) { _collat = router.WETH();}\n       uint amount0Out = _loan == pair.token0() ? debt_to_liquide : 0;\n       uint amount1Out = _loan == pair.token1() ? debt_to_liquide : 0;\n       bytes memory data = abi.encode(_loan, _collat, _target, debt_to_liquide);\n       pair.swap(amount0Out, amount1Out, address(this), data);\n       \n    }\n    \n    \n    // gets tokens/WETH via a V2 flash swap, swaps for the ETH/tokens on V1, repays V2, and keeps the rest!\n    function uniswapV2Call(address sender, uint amount0, uint amount1, bytes calldata data) external override {\n        (address loan, address collat, address target, uint repayAmount) = abi.decode(data,(address, address, address, uint));\n        address[] memory path = new address[](2);\n        uint amountToken;\n        uint amountETH;\n        bool isEth;\n        { // scope for token{0,1}, avoids stack too deep errors\n        address token0 = IUniswapV2Pair(msg.sender).token0();  // msg.sender = pair(loan, weth)\n        address token1 = IUniswapV2Pair(msg.sender).token1();\n        if (address(WETH) != loan && address(WETH) != collat) {isEth = false;} else { isEth = true;}\n        \n        require(msg.sender == UniswapV2Library.pairFor(factory, token0, token1), \"paire non reconnue\"); // ensure that msg.sender is actually a V2 pair\n        require(amount0 == 0 || amount1 == 0, \"both amounts > 0\"); // this strategy is unidirectional\n        require(amount0 > 0 || amount1 > 0, \"no amount > 0\");\n        path[0] = amount0 == 0 ? token0 : token1;  // token  rembourser a uniswap\n        path[1] = amount0 == 0 ? token1 : token0;  // token emprunt a uniswap\n        amountToken = token0 == address(WETH) ? amount1 : amount0;\n        amountETH = token0 == address(WETH) ? amount0 : amount1;\n        }\n\n       // assert(path[0] == address(WETH) || path[1] == address(WETH)); // this strategy only works with a V2 WETH pair\n        address token = path[0] == address(WETH) ? path[1] : path[0]; \n       // IERC20 Token = IERC20(path[0] == address(WETH) ? path[1] : path[0]);\n        IERC20 Token = IERC20(token);\n        \n      \n        \n        if (amountToken > 0 && isEth ) { // ERC20/ETH flashswap ERC20\n    \n         //   Token.approve(address(router), amountToken);\n         //   Token.approve(provider.getLendingPoolCore(), amountToken);\n            lendingPool.liquidationCall(eth, token, target, repayAmount, false);\n            uint amountReceived = address(this).balance;\n         //   path[0] = collat; path[1] = router.WETH();\n          //  IERC20(path[0]).safeApprove(address(router), amountReceived);\n          //  amountReceived = router.swapExactTokensForETH(amountReceived, 1000, path, address(this), now + 120 )[1];\n           // uint amountRequired = UniswapV2Library.getAmountsIn(factory, amountToken, path)[0];\n            path[0] = router.WETH(); path[1] = loan;\n            uint amountRequired = router.getAmountsIn(amountToken, path)[0];\n            require(amountReceived > amountRequired, \"flashswap non profitable\"); // fail if we didn't get enough ETH back to repay our flash loan\n            WETH.deposit{value: amountRequired}();  // deposit eth and get Weth\n            assert(WETH.transfer(msg.sender, amountRequired)); // return WETH to V2 pair\n           // (bool success,) = \n            //sender.call{value: amountReceived - amountRequired}(new bytes(0)); // keep the rest! (ETH)\n             //  require(success, \"loan revert bc not profitable\");\n            Myaddress.transfer(address(this).balance);\n        } \n        if (amountETH > 0 && isEth) { // amountETH > 0  ETH/ERC20 flashswap weth \n            WETH.withdraw(amountETH); // recupere des eth contre weth\n            lendingPool.liquidationCall{value: amountETH}(address(Token), eth, target, amountETH, false);\n            uint amountReceived = Token.balanceOf(address(this));\n           // uint amountRequired = UniswapV2Library.getAmountsIn(factory, amountETH, path)[0];\n            path[0] = collat; path[1] = router.WETH();\n            uint amountRequired = router.getAmountsIn(amountETH, path)[0];\n            emit tracker (amountReceived, amountRequired);\n            require(amountReceived > amountRequired, \" amountReceived must be superieor to amountRequired\"); // fail if we didn't get enough tokens back to repay our flash loan\n            require(Token.transfer(msg.sender, amountRequired), \" transfer funds back to pair failed\"); // return tokens to V2 pair\n       // inutile ds ce cas     assert(Token.transfer(sender, amountReceived - amountRequired)); // keep the rest! (tokens)\n            Token.transfer(Myaddress, Token.balanceOf(address(this)));\n        }\n        else { // ERC20/ERC20\n            Token.safeApprove(address(router), amountToken); // Token = loan contract\n            Token.safeApprove(provider.getLendingPoolCore(), amountToken);\n            lendingPool.liquidationCall(collat, loan, target, repayAmount, false);\n            IERC20 CollatToken = IERC20(collat);\n            uint amountReceived = CollatToken.balanceOf(address(this));\n            path[0] = collat; path[1] = router.WETH();\n            IERC20(collat).safeApprove(address(router), amountReceived);\n            amountReceived = router.swapExactTokensForETH(amountReceived, 1000, path, address(this), now + 120 )[1]; // eth rceived\n            path[0] = router.WETH(); path[1] = loan;\n            uint amountRequired = router.getAmountsIn(repayAmount, path)[0];\n               amountReceived = address(this).balance; // for test only si on des eth  au contract\n            emit tracker (amountReceived, amountRequired);\n            require(amountReceived > amountRequired, \"flashswap non profitable\"); // fail if we didn't get enough ETH back to repay our flash loan\n            WETH.deposit{value: amountRequired}();  // deposit eth and get Weth\n             //   require(WETH.balanceOf(address(this)),\"pas assez de weth a renvoyer a pair\");\n            require(WETH.transfer(msg.sender, amountRequired),\"le transfer de weth  la paire a echou\"); // return WETH to V2 pair\n           // (bool success,) = sender.call{value: amountReceived - amountRequired}(new bytes(0)); // keep the rest! (ETH)\n          //  require(success, \"loan revert bc not profitable\");\n            WETH.withdraw(WETH.balanceOf(address(this)));\n            Myaddress.transfer(address(this).balance);\n            \n        }\n        \n    }\n    \n    \n}",
  "sourcePath": "/home/alex/moneylego/contracts/AaveLiquidations.sol",
  "compiler": {
    "name": "solc",
    "version": "0.6.6+commit.6c089d02.Emscripten.clang"
  },
  "schemaVersion": "3.2.3",
  "updatedAt": "2020-10-16T15:41:09.239Z",
  "devdoc": {
    "methods": {}
  },
  "userdoc": {
    "methods": {}
  }
}